{
  "_format": "hh-sol-artifact-1",
  "contractName": "Attendance",
  "sourceName": "contracts/Attendance.sol",
  "abi": [
    {
      "inputs": [
        {
          "internalType": "string",
          "name": "_subject",
          "type": "string"
        },
        {
          "internalType": "string",
          "name": "_date",
          "type": "string"
        },
        {
          "internalType": "string",
          "name": "_slot",
          "type": "string"
        },
        {
          "internalType": "string",
          "name": "_attendance",
          "type": "string"
        }
      ],
      "name": "addAttendance",
      "outputs": [],
      "stateMutability": "nonpayable",
      "type": "function"
    },
    {
      "inputs": [],
      "name": "attendanceCount",
      "outputs": [
        {
          "internalType": "uint256",
          "name": "",
          "type": "uint256"
        }
      ],
      "stateMutability": "view",
      "type": "function"
    },
    {
      "inputs": [
        {
          "internalType": "uint256",
          "name": "",
          "type": "uint256"
        }
      ],
      "name": "attendanceData",
      "outputs": [
        {
          "internalType": "string",
          "name": "subject",
          "type": "string"
        },
        {
          "internalType": "string",
          "name": "date",
          "type": "string"
        },
        {
          "internalType": "string",
          "name": "slot",
          "type": "string"
        },
        {
          "internalType": "string",
          "name": "attendance",
          "type": "string"
        },
        {
          "internalType": "bool",
          "name": "facultyValidate",
          "type": "bool"
        },
        {
          "internalType": "bool",
          "name": "hodValidate",
          "type": "bool"
        },
        {
          "internalType": "uint256",
          "name": "count",
          "type": "uint256"
        }
      ],
      "stateMutability": "view",
      "type": "function"
    },
    {
      "inputs": [],
      "name": "getAllAttendance",
      "outputs": [
        {
          "components": [
            {
              "internalType": "string",
              "name": "subject",
              "type": "string"
            },
            {
              "internalType": "string",
              "name": "date",
              "type": "string"
            },
            {
              "internalType": "string",
              "name": "slot",
              "type": "string"
            },
            {
              "internalType": "string",
              "name": "attendance",
              "type": "string"
            },
            {
              "internalType": "bool",
              "name": "facultyValidate",
              "type": "bool"
            },
            {
              "internalType": "bool",
              "name": "hodValidate",
              "type": "bool"
            },
            {
              "internalType": "uint256",
              "name": "count",
              "type": "uint256"
            }
          ],
          "internalType": "struct Attendance.AttendanceRecord[]",
          "name": "",
          "type": "tuple[]"
        }
      ],
      "stateMutability": "view",
      "type": "function"
    },
    {
      "inputs": [
        {
          "internalType": "uint256",
          "name": "_UniqueId",
          "type": "uint256"
        }
      ],
      "name": "validateByFaculty",
      "outputs": [],
      "stateMutability": "nonpayable",
      "type": "function"
    },
    {
      "inputs": [
        {
          "internalType": "uint256",
          "name": "_UniqueId",
          "type": "uint256"
        }
      ],
      "name": "validateByHod",
      "outputs": [],
      "stateMutability": "nonpayable",
      "type": "function"
    }
  ],
  "bytecode": "0x608060405234801561001057600080fd5b50611288806100206000396000f3fe608060405234801561001057600080fd5b50600436106100625760003560e01c80630a6fdeee146100675780631c11863a1461008557806323193459146100a3578063829cac5a146100bf578063a21d768d146100f5578063da1c075914610111575b600080fd5b61006f61012d565b60405161007c9190610af1565b60405180910390f35b61008d610483565b60405161009a9190610b22565b60405180910390f35b6100bd60048036038101906100b89190610c86565b610489565b005b6100d960048036038101906100d49190610d89565b61059b565b6040516100ec9796959493929190610e0f565b60405180910390f35b61010f600480360381019061010a9190610d89565b610817565b005b61012b60048036038101906101269190610d89565b610848565b005b6060600060015467ffffffffffffffff81111561014d5761014c610b5b565b5b60405190808252806020026020018201604052801561018657816020015b610173610879565b81526020019060019003908161016b5790505b5090506000600190505b600154811161047b576000808281526020019081526020016000206040518060e00160405290816000820180546101c690610ec9565b80601f01602080910402602001604051908101604052809291908181526020018280546101f290610ec9565b801561023f5780601f106102145761010080835404028352916020019161023f565b820191906000526020600020905b81548152906001019060200180831161022257829003601f168201915b5050505050815260200160018201805461025890610ec9565b80601f016020809104026020016040519081016040528092919081815260200182805461028490610ec9565b80156102d15780601f106102a6576101008083540402835291602001916102d1565b820191906000526020600020905b8154815290600101906020018083116102b457829003601f168201915b505050505081526020016002820180546102ea90610ec9565b80601f016020809104026020016040519081016040528092919081815260200182805461031690610ec9565b80156103635780601f1061033857610100808354040283529160200191610363565b820191906000526020600020905b81548152906001019060200180831161034657829003601f168201915b5050505050815260200160038201805461037c90610ec9565b80601f01602080910402602001604051908101604052809291908181526020018280546103a890610ec9565b80156103f55780601f106103ca576101008083540402835291602001916103f5565b820191906000526020600020905b8154815290600101906020018083116103d857829003601f168201915b505050505081526020016004820160009054906101000a900460ff161515151581526020016004820160019054906101000a900460ff161515151581526020016005820154815250508260018361044c9190610f29565b8151811061045d5761045c610f5d565b5b6020026020010181905250808061047390610f8c565b915050610190565b508091505090565b60015481565b6001600081548092919061049c90610f8c565b91905055506040518060e00160405280858152602001848152602001838152602001828152602001600015158152602001600015158152602001600154815250600080600154815260200190815260200160002060008201518160000190816105059190611180565b50602082015181600101908161051b9190611180565b5060408201518160020190816105319190611180565b5060608201518160030190816105479190611180565b5060808201518160040160006101000a81548160ff02191690831515021790555060a08201518160040160016101000a81548160ff02191690831515021790555060c0820151816005015590505050505050565b60006020528060005260406000206000915090508060000180546105be90610ec9565b80601f01602080910402602001604051908101604052809291908181526020018280546105ea90610ec9565b80156106375780601f1061060c57610100808354040283529160200191610637565b820191906000526020600020905b81548152906001019060200180831161061a57829003601f168201915b50505050509080600101805461064c90610ec9565b80601f016020809104026020016040519081016040528092919081815260200182805461067890610ec9565b80156106c55780601f1061069a576101008083540402835291602001916106c5565b820191906000526020600020905b8154815290600101906020018083116106a857829003601f168201915b5050505050908060020180546106da90610ec9565b80601f016020809104026020016040519081016040528092919081815260200182805461070690610ec9565b80156107535780601f1061072857610100808354040283529160200191610753565b820191906000526020600020905b81548152906001019060200180831161073657829003601f168201915b50505050509080600301805461076890610ec9565b80601f016020809104026020016040519081016040528092919081815260200182805461079490610ec9565b80156107e15780601f106107b6576101008083540402835291602001916107e1565b820191906000526020600020905b8154815290600101906020018083116107c457829003601f168201915b5050505050908060040160009054906101000a900460ff16908060040160019054906101000a900460ff16908060050154905087565b600160008083815260200190815260200160002060040160006101000a81548160ff02191690831515021790555050565b600160008083815260200190815260200160002060040160016101000a81548160ff02191690831515021790555050565b6040518060e0016040528060608152602001606081526020016060815260200160608152602001600015158152602001600015158152602001600081525090565b600081519050919050565b600082825260208201905092915050565b6000819050602082019050919050565b600081519050919050565b600082825260208201905092915050565b60005b83811015610920578082015181840152602081019050610905565b60008484015250505050565b6000601f19601f8301169050919050565b6000610948826108e6565b61095281856108f1565b9350610962818560208601610902565b61096b8161092c565b840191505092915050565b60008115159050919050565b61098b81610976565b82525050565b6000819050919050565b6109a481610991565b82525050565b600060e08301600083015184820360008601526109c7828261093d565b915050602083015184820360208601526109e1828261093d565b915050604083015184820360408601526109fb828261093d565b91505060608301518482036060860152610a15828261093d565b9150506080830151610a2a6080860182610982565b5060a0830151610a3d60a0860182610982565b5060c0830151610a5060c086018261099b565b508091505092915050565b6000610a6783836109aa565b905092915050565b6000602082019050919050565b6000610a87826108ba565b610a9181856108c5565b935083602082028501610aa3856108d6565b8060005b85811015610adf5784840389528151610ac08582610a5b565b9450610acb83610a6f565b925060208a01995050600181019050610aa7565b50829750879550505050505092915050565b60006020820190508181036000830152610b0b8184610a7c565b905092915050565b610b1c81610991565b82525050565b6000602082019050610b376000830184610b13565b92915050565b6000604051905090565b600080fd5b600080fd5b600080fd5b600080fd5b7f4e487b7100000000000000000000000000000000000000000000000000000000600052604160045260246000fd5b610b938261092c565b810181811067ffffffffffffffff82111715610bb257610bb1610b5b565b5b80604052505050565b6000610bc5610b3d565b9050610bd18282610b8a565b919050565b600067ffffffffffffffff821115610bf157610bf0610b5b565b5b610bfa8261092c565b9050602081019050919050565b82818337600083830152505050565b6000610c29610c2484610bd6565b610bbb565b905082815260208101848484011115610c4557610c44610b56565b5b610c50848285610c07565b509392505050565b600082601f830112610c6d57610c6c610b51565b5b8135610c7d848260208601610c16565b91505092915050565b60008060008060808587031215610ca057610c9f610b47565b5b600085013567ffffffffffffffff811115610cbe57610cbd610b4c565b5b610cca87828801610c58565b945050602085013567ffffffffffffffff811115610ceb57610cea610b4c565b5b610cf787828801610c58565b935050604085013567ffffffffffffffff811115610d1857610d17610b4c565b5b610d2487828801610c58565b925050606085013567ffffffffffffffff811115610d4557610d44610b4c565b5b610d5187828801610c58565b91505092959194509250565b610d6681610991565b8114610d7157600080fd5b50565b600081359050610d8381610d5d565b92915050565b600060208284031215610d9f57610d9e610b47565b5b6000610dad84828501610d74565b91505092915050565b600082825260208201905092915050565b6000610dd2826108e6565b610ddc8185610db6565b9350610dec818560208601610902565b610df58161092c565b840191505092915050565b610e0981610976565b82525050565b600060e0820190508181036000830152610e29818a610dc7565b90508181036020830152610e3d8189610dc7565b90508181036040830152610e518188610dc7565b90508181036060830152610e658187610dc7565b9050610e746080830186610e00565b610e8160a0830185610e00565b610e8e60c0830184610b13565b98975050505050505050565b7f4e487b7100000000000000000000000000000000000000000000000000000000600052602260045260246000fd5b60006002820490506001821680610ee157607f821691505b602082108103610ef457610ef3610e9a565b5b50919050565b7f4e487b7100000000000000000000000000000000000000000000000000000000600052601160045260246000fd5b6000610f3482610991565b9150610f3f83610991565b9250828203905081811115610f5757610f56610efa565b5b92915050565b7f4e487b7100000000000000000000000000000000000000000000000000000000600052603260045260246000fd5b6000610f9782610991565b91507fffffffffffffffffffffffffffffffffffffffffffffffffffffffffffffffff8203610fc957610fc8610efa565b5b600182019050919050565b60008190508160005260206000209050919050565b60006020601f8301049050919050565b600082821b905092915050565b6000600883026110367fffffffffffffffffffffffffffffffffffffffffffffffffffffffffffffffff82610ff9565b6110408683610ff9565b95508019841693508086168417925050509392505050565b6000819050919050565b600061107d61107861107384610991565b611058565b610991565b9050919050565b6000819050919050565b61109783611062565b6110ab6110a382611084565b848454611006565b825550505050565b600090565b6110c06110b3565b6110cb81848461108e565b505050565b5b818110156110ef576110e46000826110b8565b6001810190506110d1565b5050565b601f8211156111345761110581610fd4565b61110e84610fe9565b8101602085101561111d578190505b61113161112985610fe9565b8301826110d0565b50505b505050565b600082821c905092915050565b600061115760001984600802611139565b1980831691505092915050565b60006111708383611146565b9150826002028217905092915050565b611189826108e6565b67ffffffffffffffff8111156111a2576111a1610b5b565b5b6111ac8254610ec9565b6111b78282856110f3565b600060209050601f8311600181146111ea57600084156111d8578287015190505b6111e28582611164565b86555061124a565b601f1984166111f886610fd4565b60005b82811015611220578489015182556001820191506020850194506020810190506111fb565b8683101561123d5784890151611239601f891682611146565b8355505b6001600288020188555050505b50505050505056fea26469706673582212207539f94618c8e46999f2de3459ff1ffbd83201ab563cae3a07b6967c0f2d42e164736f6c63430008130033",
  "linkReferences": {},
  "deployedLinkReferences": {}
}